:040000000200933235
:01000B0032C2
:0100130032BA
:01001B0032B2
:0100230032AA
:01002B0032A2
:01003300329A
:01003B003292
:01004300328A
:01004B003282
:01005300327A
:01005B003272
:01006300326A
:01006B003262
:01007300325A
:01007B003252
:01008300324A
:03008B000201A0CF
:03010D0002008E5F
:03008E000201105C
:2001100012015443FD04AE806306048E8090000112015EAE807F006306048E8090000512AA
:20013000015EAE807F006306048E8080EF000000000201480000000000000000E5826003A4
:04015000D582EA2248
:2001540075C60075BE8475C70022AE82AF838E048F051EBEFF011FEC4D60227582FAC00745
:20017400C00612014C7582FA12014C7582FA12014C7582F912014CD006D00780D12253FEE6
:0D019400FB22D29243FE042275820122322A
:2001A100C0E0C007C006C005C004C000C0D075D00075EBF97800E2FC08E2FD08E2FE08E28B
:2001C100FF780074012CF2E43D08F2E43E08F2E43F08F2D0D0D000D004D005D006D007D02A
:2001E100E032A2BCE433FFC2BC7800E2FB08E2FC08E2FD08E2FEEF24FF92BC8B828C838DE7
:20020100F0EE2275EDF9D2BC75EBF9D2AF22AE82AF838E048F051EBEFF011FEC4D60227545
:2002210082FAC007C00612014C7582FA12014C7582FA12014C7582F912014CD006D0078039
:02024100D122C8
:20024300120409E58260F9020411AF82C0071203B6E582D00760058F820203F12275080099
:20026300750900750A00750B00C200C201C20253FF3F53F1FE75C4824386C043F30843A974
:200283000453B9FBD2E9C28BD2AAD2AF22AF82AE83ADF0FCC3EF9417EE9400ED9400EC944E
:2002A30000400D74609F74E39E74169DE49C5001227B00C374A69F74909E74079DE49C50EB
:2002C300100BECC313FCED13FDEE13FEEF13FF80E27822EFF208EEF208EDF208ECF2900023
:2002E3000BE4F5F0C007C006C005C004C003120E0185820C85830D85F00EF50FD003D004D7
:20030300D005D006D0077822EFF208EEF208EDF208ECF29021D7E4F5F0C003120E01AC82C5
:20032300AD83AEF0FF781A741BF20874B7F208E4F208F28C828D838EF0EF120D64AC82ADF4
:2003430083AEF0FFD003EC250CFCED350DFDEE350EFEEF350FFFC374FF9C74019DE49EE4B7
:200363009F50100BEFC313FFEE13FEED13FDEC13FC80E38BC58CC222AF827E00BF010280A1
:200383000FBF0202800EBF0302800DBF0410800C7E38800A7E1880067E3080027E10E5C487
:2003A30054474EF5C422AF82BF020443C4042253C4FB22E509C3950814F58222AE82AF83C2
:2003C3007804E2FDED6026E508242EFBE43400FC8E828F83E0FAA3AE82AF838B828C83EAF7
:2003E300F0E508FC04F5081D439A0480D722AF82E508242EF582E43400F583EFF0E5080462
:20040300F508439A0422E50BC3950AF58222E50A242EF582E43401F583E0FFE50A04F50AD4
:200423008F8222C0E0C082C083C007C0D075D000E508B509028018C2E9E509242EF582E43A
:200443003400F583E0F5C1E509FF04F5098003539AFBD0D0D007D083D082D0E032C0E0C09F
:2004630082C083C007C006C005C004C003C0D075D000C28BE586FF541860028031AD0A7E9B
:2004830000AB0B7C00EDC39BFDEE9CFE1DBDFF011EED6016E50B242EF582E43401F583E5CD
:2004A300C1F0E50BFE04F50B8010D202800CEF30E402D201EF30E302D200D0D0D003D004B1
:0D04C300D005D006D007D083D082D0E03223
:0400EC00C203C20485
:2004D00022AF827E00EF2FFFEE33FE74202FFF74623EFE7807E2FD7808E2FB08E2FCED603D
:2004F000131D8F828E83E0FA8B828C83F0A3AB82AC8380EAD20422AF827E00EF2FFFEE3366
:20051000FE74202FFF74623EFE780AE2FD780BE2FB08E2FCED60141D8B828C83E0FAA3AB90
:2005300082AC838F828E83EAF080E92290620FE043E003F090620FE0C20390620B7407F06E
:200550002290023BE0701312019643BE800000000090023B7402F012053C906206E0FF9022
:200570006202E0FEEF30E002D203EF30E21690023B7404F090023CE4F0C007C00612053C85
:20059000D006D007EF30E102C203EE20E0012290620EE4F0906211E0FFD204EF30E40B909C
:2005B00062117480F090023CE4F0EF30E209906211E4F090023CF0EF20E00302071A9002EC
:2005D0003CE0FEBE0102800302067A906216E0FE900236E0FCA3E0FD8E027B00C3EC9AEDE0
:2005F0009B50028C067807EEF278057908E2F308E209F3758200C007C0061204D1D006D043
:20061000077805E22EF208E23400F27D00900236E0FBA3E0FCEBC39EFBEC9DFC900236EB16
:20063000F0ECA3F0900236E0F5F0A3E045F060099062117440F002071A90022EE05460600F
:2006500007C007120B78D00790620EE4F090023CE070099062117468F002071A90621174EC
:2006700048F090023CE4F002071A906216E0FEBE080280030207147808742EF2087402F29B
:2006900078077408F2758200C0071204D1D00790023CE4F090022EE054607009C007120792
:2006B0008DD0078007C007120B18D00790620EE4F0900234E0FDA3E0FE900236E0FBA3E04E
:2006D000FCC3ED9BEE9C5008900236EDF0EEA3F090023CE0FEE070089062117460F0802A46
:2006F000BE0127900236E0F5F0A3E045F060089062117440F08013906211744AF090023C9E
:20071000E4F080069062117440F0EF20E16E90023CE0FFBF0266900236E0FEA3E0FF8E04DC
:200730008F05C3EC9420ED940050097D0A90023CE4F080047D027E20780AEEF27805790BAB
:20075000E2F308E209F3758200C006C005120507D005D006906211EDF07805E22EF208E23A
:200770003400F27F00900236E0FCA3E0FDECC39EFCED9FFD900236ECF0EDA3F022900238BE
:20079000E4F0900239F090022FE0FF24F3500122EF240A83F582EF241183F583E47330D300
:2007B000E5D3E580C8E5D8A0FEE5D609090909090807090808080909900230E0FEA3E0FF9D
:2007D000FC7D00BC0105BD00028013BC0205BD00028022BC0305BD0002803D02086F780522
:2007F0007451F27480240F08F29002367412F0E4A3F0020879EE60012278057463F274802E
:20081000240F08F2900F65E493FCA3E493FD900236ECF0EDA3F080518E047D00900FA6E4E0
:2008300093FB7A00C3EC9BED9A4003020B767F00EE2EFEEF33FFEE24DDF582EF340FF5833F
:20085000E493FEA3E4932480FF7805EEF208EFF28E828F83E0FE900236F0E4A3F0800A1245
:200870000B7690023CE070012290023C7402F022900230E0906200F0900230E060067E083E
:200890007F0080047E047F0090023BEEF0020A7B900230E0FEA3E0FFBE0005BF00028008E4
:2008B000BE0121BF001E801190023BE0FF24F7501490023B7408F0800C90023B7410F01297
:2008D0000AF1800122020A7B90023BE0FFBF10067E017F0080047E007F00900238EEF078C3
:2008F0000D7438F2087402F2900001020A3990023BE0FFBF1000500122900232E0FEA3E0E4
:20091000FF900F67E493FD7C00C3EE9DEF9C400122780D7438F2087402F2900001020A392D
:2009300090022EE0541FFF600DBF0102802DBF020280650209D212019CE58260067E017FBA
:200950000080047E007F00900238EEF0780D7438F2087402F2900002020A3990023BE0FF48
:20097000BF1000500C900232E0FEA3E0FF4E600122900232E0FEA3E0FF900F67E493FD7C2D
:2009900000C3EE9DEF9C400122780D7438F2087402F2900002020A39900230E0FEA3E0FF7F
:2009B000EE540F600280012290023BE0FFBF1000500122780D7438F2087402F290000202BC
:2009D0000A3922020A7B780D7438F2087402F2900002020A3922A20322AF8CA2BD9205C2D5
:2009F000BD438C10538CFE758900C2C5D2BD74FC55BE4401F5BE000000E5BE54036007D2AC
:200A100090438701C290C2BDE58930E702C20330030BC00712019CE582D00760CAE5BE305F
:200A3000E6FB8F8CA20592BD22AE82AF8390023C7402F0900236EEF0EFA3F0780DE2FE0867
:200A5000E2FF7805EEF208EFF222AE82AF8390023C7401F0900236EEF0EFA3F0780FE2FE19
:200A700008E2FF7805EEF208EFF22290023C7401F0900236E4F0A3F02290023CE4F022E5E8
:200A90008290620EF07811E2FE7F0074072EFEE43FC423CEC423541F6ECE541FCE6ECE302A
:200AB000E40244E0906210EEF09062127401F022E58290620EF07812E2FE7F0074072EFECA
:200AD000E43FC423CEC423541F6ECE541FCE6ECE30E40244E0906213EEF09062157401F092
:010AF00022E3
:020FE50000000A
:1D00F000751000C206C2077813E4F27814F2781514F27E777F0B7816EEF208EFF295
:200AF1007811740AF2758201120A8F78127440F2758204120AC078117440F2758204120AFC
:200B11008F781574FFF22290022EE0FF53077F7E00BF2150BE004D900232E0FEA3E0FF4E7E
:200B31006006BE013FBF003C90022FE0FFBF2002800ABF21028014BF222A801E780F743DE3
:200B5100F2087402F2900007020A5A780D743DF2087402F2900007020A399002307813E084
:200B7100F2020A7B2222227816E2F58208E2F58312009190023DE0FCA3E0FDA3E0FEA3E06A
:200B9100FFBC4D1DBD011ABE0017BF0014200711D2071201E3AC82AD83AEF0FF90023AECE5
:200BB100F02290023BE0FFBF100280047582002290620E7404F0906214E030E0079062168B
:200BD100E0F582227582002290620E7404F0906228E0FF906216E07008906214E053E0FE9A
:200BF100F0D2048F8222AE82AF8378187907E2F37808EEF208EFF27582041204D190621671
:200C1100E07008906214E053E0FEF02290620E7404F0906211E043E001F07440B51003D394
:200C31008001C39206751000D2042212055190023BE0FFBF105F90620E7404F0E510700A31
:200C510030060A906211E020E103120C1D90620E7401F078147915E2F5F0E3B5F0012290A0
:200C71006211E020E02F90622274A1F07420F0E4F0F0F0F07402F0E4F07814E2F0E4F090A4
:200C91006211E043E001F07814E25483F27814E27815F2D2042290023BE0FFBF10028004BF
:200CB1007582002290620E7404F0906211E0FF30E111EF30E00475820022AF107440C39FAD
:200CD100F58222AF107480C39FF58222AE82AF837819E26052AD107440C39DFD7819C3E231
:200CF1009D50047819E2FD780AEDF2780BEEF208EFF2758204C007C006C005120507D00595
:200D1100D006D007ED2EFEE43FFF7819E2C39DF2ED2510F5107440B510B6C007C006120C14
:200D31001DD006D00780A922E582906228F005107440B51003020C1D227813E2F58222AF89
:130D5100827814E2547C4F7814F222AF827814E24FF222DE
:200F51001201000202000020FB1F002200000102030109024300020100C0320904000001B5
:200F71000202010005240020010424020205240600010524010001070581030A00010904E2
:200F91000100020A00000007050402400000070584024000000404030904260350006F000F
:200FB1006C006F006C007500200043006F00720070006F0072006100740069006F006E00B4
:140FD1000C0357006900780065006C00A70FAB0FD10FE603BB
:070FE7008025000000000856
:200D6400AF82AE83ADF0FC781EEFF208EEF208EDF208ECF27A007B007E007F007D20782120
:200D8400E2235401FC781EE225E0F208E233F208E233F208E233F2EA2AFAEB33FBEE33FE17
:200DA400EF33FFEC6003430201781AC3E2F5F0EA95F008E2F5F0EB95F008E2F5F0EE95F06D
:200DC40008E2F5F0EF95F04022781AD3E29AF4B3FAB308E29BF4B3FBB308E29EF4B3FEB37B
:1D0DE40008E29FF4FF781EE24401F2DD91781EE2F58208E2F58308E2F5F008E2222D
:0600C200E478FFF6D8FD12
:2000A0007909E94400601B7A01900FE5783B759302E493F2A308B800020593D9F4DAF275E6
:0200C00093FFAC
:200E0100AF82AE83ADF0FC7826EFF208EEF208EDF208ECF27826E2FF7824E28FF0A4FFADD6
:200E2100F0782CEFF208EDF27826E2FF7822E28FF0A4FFADF0782AEFF208EDF2782DE2FFAB
:200E41007829E2FE7822E28EF0A42FFF782DF27828E2FE7823E28EF0A42F782DF2782CE242
:200E6100FE08E2FF7828E2FD7822E28DF0A4ABF02EFEEB3FFF782CEEF208EFF27827E2FD93
:200E81007823E28DF0A4ABF02EFEEB3FFF782CEEF208EFF27827E2FF7824E28FF0A4782994
:200EA100F27827E2FF7822E28FF0A4FFADF07827EFF208EDF27826E2FF7825E28FF0A47884
:200EC10025F27826E2FF7823E28FF0A4FFADF07823EFF208EDF27822E4F27826F2782AE258
:200EE100F51108E2F51208E2F51308E2F5147826E2FA08E2FB08E2FE08E2FFEA2511F511BF
:200F0100EB3512F512EE3513F513EF3514F514782AE511F208E512F208E513F208E514F2B8
:200F2100782AE208E208E208E27822E2FC08E2FD08E2FE08E2FFEC2511FCED3512FDEE35CC
:0C0F410013FEEF35148C828D838EF0229D
:2000C800782EE84400600A7900759300E4F309D8FC780DE84402600C790390002EE4F0A3D7
:0400E800D8FCD9FA6D
:0F009100E473758120120F4DE582600302008E2B
:040F4D007582002287
:00000001FF
